:0200000280007C
:10000000E8250720ED030800E9030800E9030800DC
:10001000E9030800E9030800E90308000000000004
:10002000000000000000000000000000E9030800DC
:10003000E903080000000000E9030800E9030800E4
:10004000E9030800E9030800E9030800E9030800E0
:10005000B5050800E9030800E9030800E903080002
:10006000E9030800E9030800000000003502080069
:10007000490208005D02080071020800000000004B
:1000800000000000E9030800E9030800E903080094
:10009000E9030800E9030800E9030800E903080090
:1000A000E903080000000000E9030800E903080074
:1000B000E9030800E9030800E9030800E903080070
:1000C000E9030800E9030800E9030800E903080060
:1000D000E9030800E9030800E9030800E903080050
:1000E000E9030800E9030800E9030800E903080040
:1000F000E903080010B5054C237833B9044B13B15C
:100100000448AFF300800123237010BD5805072079
:10011000000000001C080800084B10B51BB108497E
:100120000848AFF300800848036803B910BD074BC7
:10013000002BFBD0BDE81040184700BF00000000B6
:100140005C0507201C0808001C08080000000000CF
:1001500010B50E480E4B98473E2100200D4B984796
:100160000D4CA0470028FCD00C4B98470C4A0D4B77
:100170009A620D4CA0470028FCD010200B4B9847EA
:100180000B4B98470148024B984710BD00BD010535
:10019000A5000720ED0208004103080051030800F4
:1001A000013F0D2000060E40610308008502080093
:1001B0009904080010B44164019C0CB1416600E050
:1001C00001660BB1016500E041650AB1016300E021
:1001D00041630161016010BC704700BFC06C704793
:1001E000806C70472DE9F041044688460E4B9847D5
:1001F000054620460D4B9847054013D00C4C04F1A2
:1002000060062368434508D16168294205D0E36848
:1002100040469847636825EA0305B44202D010348B
:10022000002DEED1BDE8F081DD010800E1010800FC
:100230007405072008B50B210148024B984708BDFB
:10024000000E0E40E501080008B50C210148024BE4
:10025000984708BD00100E40E501080008B50D21C3
:100260000148024B984708BD00120E40E501080006
:1002700008B50E210148024B984708BD00140E40F6
:10028000E5010800184A136B23F07003184310634C
:10029000936E13F0080F03D009E0013B03D11EE079
:1002A0004FF4006310498A6E12F0080FF5D00E4A21
:1002B000136B23F0030343F002031363906E10F0FB
:1002C000080004D000207047013B03D109E04FF43F
:1002D000006305498A6E12F0080FF5D070470120BF
:1002E00070470120704700BF00060E4038B1114929
:1002F0000B6A114A1A40114B13430B6270470D48A9
:10030000026A090289B222F45C1323F0030343F466
:100310005C1343F001030B4303620246936E13F038
:10032000010FFBD0034A136A43F09B7343F48033FD
:100330001362704700060E40FCFFC8FE0200370142
:10034000024B986E00F48030704700BF00060E40EC
:100350004FF00052014B9A62704700BF00060E40FA
:10036000024B986E00F00200704700BF00060E407E
:10037000094BB3FBF1F1814208D8C1EB0133834251
:1003800007D3B0FBF1F0C0F30B0070474FF6FF70DE
:1003900070474FF6FF7070470020A10710B4054C5E
:1003A00004EA0343C2F30B0213431943416010BC38
:1003B000704700BF0000FF0F024B984204BF024A83
:1003C0001A607047501A0E40010000A580687047FF
:1003D0004068C0F30B00C001B0FBF1F1014800FB25
:1003E00001F0704740420F00FEE700BF08B51E4B0A
:1003F0001E4A9A4203D01E4B1B4A9A4204D31D4BFD
:100400001D4A9A420FD31AE017491C4B5B1A23F07E
:1004100003030433154A134452F8040B41F8040B48
:100420009A42F9D1EBE7164B164AD21A22F0030290
:100430001A44043B002143F8041B9342FBD1124BA6
:1004400023F0604222F07F0210498A6003F160438A
:10045000B3F5801F03D28B6843F000538B600C4BC5
:1004600098470C4B9847FEE7000007201C0808003F
:1004700058050720E80507205805072057050720DD
:100480005C050720EB0507200000080000ED00E0F8
:10049000B5060800ED0508003E4B1B6B03F0030397
:1004A000032B5FD8DFE803F0020E2B2B3A4B5B697E
:1004B00013F0800F14BF4FF400424FF4FA42374B51
:1004C0001A604FE0334B1B6A13F0807F03D0344A2D
:1004D000324B1A6046E0334A304B1A602D4B1B6A90
:1004E00003F07003102B02D0202B04D03AE02E4AE8
:1004F0002A4B1A6036E02A4A284B1A6032E0254B14
:100500001B6A13F0807F03D0254A244B1A6012E047
:10051000244A224B1A601F4B1B6A03F07003102BF6
:1005200002D0202B04D006E01F4A1C4B1A6002E0C8
:100530001B4A1A4B1A60174B1B6B03F00303022B69
:100540000DD1144A936A926A1448C3F30A410368AE
:1005500001FB0333D2B2B3FBF2F3036002E0134AB0
:100560000E4B1A600B4B1B6B03F07003702B07D103
:100570000A4A13680E49A1FB03135B081360704716
:10058000044B1B6B0549C3F302120B68D3400B608D
:10059000704700BF00060E40101A0E402C010720C5
:1005A000001BB70000093D0000127A00001C4E0E2F
:1005B000ABAAAAAA10B5074C2046074B98474FF4A0
:1005C0008002064B5A632046054B9847054A064B66
:1005D0009A6010BD501A0E40CD03080000120E4064
:1005E000B9030800010000A5001A0E4030B583B021
:1005F000224B984700240094234601224FF48001A7
:100600001F48204DA8470094234601224FF0006167
:100610001D48A84742F210721C4B1A604FF400416B
:100620001B481C4B98474FF6FF73984200D1FEE7DA
:1006300082B2194C134619492046194DA8474FF468
:1006400000412046174B9847174B1022C3F88020D3
:10065000C3F88021002183F804131A600123134991
:10066000134AA4F525644FF0006000E001338B428B
:1006700008BF6063FAD09342F8DDFEE7510108003D
:1006800000120E40B501080000100E40E4050720DE
:10069000C0C62D0071030800501A0E4000500030F3
:1006A0009D030800D103080000E100E0F8E0F50533
:1006B000FFE0F50570B50F4E0F4D761BB61018BF55
:1006C000002405D0013455F8043B9847A642F9D1DF
:1006D0000A4E0B4D00F090F8761BB61018BF0024A0
:1006E00006D0013455F8043B9847A642F9D170BDB5
:1006F00070BD00BF04080800040808000C080800CA
:1007000004080800024B13B1024800F005B8704716
:100710000000000025070800002301461A4618467D
:1007200000F014B838B5074D074C2C1BA41005D0A9
:10073000013C55F8043D9847002CF9D1BDE83840FC
:1007400000F064B81C080800180808002DE9F047FC
:10075000254C064625688846D5F848419246994674
:10076000C4B360681F2817DC411C76B104EB80031A
:10077000C3F888A0D4F88851012282401543022E84
:10078000C4F88851C3F808911ED0831C6160002012
:1007900044F82380BDE8F087144B03B34FF4C870CE
:1007A000AFF300800446D0B1D5F84831002784E883
:1007B00088003846C5F848410121C4F88871C4F85A
:1007C0008C71002EE1D0D1E7D4F88C311A43C4F8F3
:1007D0008C21DAE705F5A674C5F84841C1E74FF06A
:1007E000FF30BDE8F08700BFF407080000000000FC
:1007F0004300000030010720F8B500BFF8BC08BC7A
:100800009E4670470507080019010800F8B500BFAB
:0C081000F8BC08BC9E467047F5000800CC
:10081C004FF48063204A136002F5007213601F4B83
:10082C001B6A13F0807F07D11D4A1C4B1A621A46B3
:10083C00936E13F0010FFBD01A4A184B1A621A462A
:10084C00936E13F4803FFBD0144A136B23F0030315
:10085C0043F001031363936E13F0080FFBD0124A9D
:10086C000E4B9A621A46936E13F0020FFBD01122B4
:10087C000A4B1A631A46936E13F0080FFBD0122220
:10088C00064B1A631A46936E13F0080FFBD0074AF7
:10089C00074B1A60704700BF000A0E4000060E405E
:1008AC000908370009083701013F0D2000BD01057B
:1008BC002C0107201B4B984206D800231A4A1360C0
:1008CC0002F5007213607047184B984207D84FF42A
:1008DC008073154A136002F5007213607047144B55
:1008EC00984207D84FF400730F4A136002F5007258
:1008FC00136070470F4B984207D84FF440730A4A65
:10090C00136002F50072136070470B4B984294BF52
:10091C004FF480634FF4A063034A136002F5007236
:10092C0013607047BFEA2101000A0E407FF0FA0203
:10093C00FF8FD003FFB3C4047F4A5D0500093D005F
:10094C00000000001C04072084040720EC0407208E
:10095C00000000000000000000000000000000008B
:10096C00000000000000000000000000000000007B
:10097C0000000000F007080000000000000000006C
:10098C00000000000000000000000000000000005B
:10099C00000000000000000000000000000000004B
:1009AC00000000000000000000000000000000003B
:1009BC00000000000000000000000000000000002B
:1009CC00000000000000000000000000000000001B
:1009DC00000000000000000000000000000000000B
:1009EC0000000000000000000100000000000000FA
:1009FC000E33CDAB34126DE6ECDE05000B000000BF
:100A0C0000000000000000000000000000000000DA
:100A1C0000000000000000000000000000000000CA
:100A2C0000000000000000000000000000000000BA
:100A3C0000000000000000000000000000000000AA
:04000003800003ED89
:00000001FF
