:0200000280007C
:10000000E8250720990608009506080095060800CF
:1000100095060800950608009506080000000000F7
:10002000000000000000000000000000950608002D
:1000300095060800000000009506080095060800D7
:100040009506080095060800950608009506080024
:100050006108080095060800950608009506080046
:100060009506080095060800000000008D040800B1
:10007000A1040800B5040800C9040800000000003D
:100080000000000095060800950608009506080087
:1000900095060800950608009506080095060800D4
:1000A0009506080000000000950608009506080067
:1000B00095060800950608009506080095060800B4
:1000C00095060800950608009506080095060800A4
:1000D0009506080095060800950608009506080094
:1000E0009506080095060800950608009506080084
:1000F0009506080010B5054C237833B9044B13B1AD
:100100000448AFF300800123237010BD5805072079
:10011000000000008C0A0800084B10B51BB108490C
:100120000848AFF300800848036803B910BD074BC7
:10013000002BFBD0BDE81040184700BF00000000B6
:100140005C0507208C0A08008C0A080000000000EB
:1001500010B50E480E4B98473E2100200D4B984796
:100160000D4CA0470028FCD00C4B98470C4A0D4B77
:100170009A620D4CA0470028FCD010200B4B9847EA
:100180000B4B98470148024B984710BD00BD010535
:10019000A50007204505080099050800A9050800E5
:1001A000013F0D2000060E40B9050800DD040800DF
:1001B0004507080010B54FF40042124B5A600B205F
:1001C000114CA0470C20A0470D20A0470E20A047AF
:1001D0004FF060513B200D4CA0474FF0605155202F
:1001E000A0474FF060515620A04709496820A0471A
:1001F00008495C20A047084A4FF440710748084B63
:10020000984710BD501A0E40C9050800C9020800E1
:10021000790000280100002801000008000E0E40AF
:100220009D0308004264B1F1805F16D004D8C1B1CB
:10023000B1F1006F0AD013E0B1F1405F11D0B1F11C
:10024000605F0ED0B1F1205F0AD17047016F036F7C
:100250000B4023EA0203036702E0036F13430367C3
:1002600042607047416412F0010F14BF416601669D
:1002700012F00A0F14BF0162416212F0020F02D0A5
:10028000C0F8801004E012F0080F18BFC0F8841006
:1002900041610160704700BF10B44164019C0CB122
:1002A000416600E001660BB1016500E041650AB1FD
:1002B000016300E041630161016010BC704700BF51
:1002C000C06C7047806C704770B582B00D464309B2
:1002D00003F5001303F207735C0201F0F043B3F17E
:1002E000205F30D006D8B3F1006F0AD0B3F1805F41
:1002F00018D049E0B3F1405F30D0B3F1605F2DD04A
:1003000042E000F01F000126864032464FF00061B7
:1003100020461F4B984715F0010F14BF66662666EE
:10032000012032E000F01F000126864032464FF0E7
:1003300080512046164B984715F0010F14BF666692
:100340002666012021E000F01F0101262A4606FA58
:1003500001F120460F4B9847304616E005F06052F9
:1003600000F01F01012605EA06030093C5F3800390
:10037000B2F1605F14BF0022012206FA01F12046AB
:10038000054CA047304600E0002002B070BD00BF21
:1003900025020800650208009902080070B582B0C5
:1003A00005460E46144602F0F043B3F1205F26D016
:1003B00006D8B3F1006F0AD0B3F1805F13D034E0F8
:1003C000B3F1405F1FD0B3F1605F1CD02DE00A464F
:1003D0004FF00061164B984714F0010F14BF6E6682
:1003E0002E66012022E00A464FF08051104B9847BC
:1003F00014F0010F14BF6E662E66012016E00D4B3F
:100400009847012012E004F0605204F001030093C9
:10041000C4F38003B2F1605F14BF002201223146B1
:100420002846054CA047012000E0002002B070BD26
:100430002502080065020800990208002DE9F04134
:10044000044688460E4B9847054620460D4B984774
:10045000054013D00C4C04F160062368434508D1D5
:100460006168294205D0E36840469847636825EAF9
:100470000305B44202D01034002DEED1BDE8F08166
:10048000C1020800C50208007405072008B50B2149
:100490000148024B984708BD000E0E403D0408007D
:1004A00008B50C210148024B984708BD00100E40CA
:1004B0003D04080008B50D210148024B984708BDCE
:1004C00000120E403D04080008B50E210148024B01
:1004D000984708BD00140E403D040800184A136BED
:1004E00023F0700318431063936E13F0080F03D0CA
:1004F00009E0013B03D11EE04FF4006310498A6E0E
:1005000012F0080FF5D00E4A136B23F0030343F0EB
:1005100002031363906E10F0080004D000207047AF
:10052000013B03D109E04FF4006305498A6E12F0E4
:10053000080FF5D07047012070470120704700BFB9
:1005400000060E4038B111490B6A114A1A40114B8E
:1005500013430B6270470D48026A090289B222F404
:100560005C1323F0030343F45C1343F001030B43D8
:1005700003620246936E13F0010FFBD0034A136A25
:1005800043F09B7343F480331362704700060E40C0
:10059000FCFFC8FE02003701024B986E00F4803069
:1005A000704700BF00060E404FF00052014B9A62A8
:1005B000704700BF00060E40024B986E00F002002C
:1005C000704700BF00060E402C281ED81F280CD8EC
:1005D000114B9A6901238340934318D0012303FAF6
:1005E00000F00D4B18610020704720380A4BD3F8FB
:1005F00008210123834093430BD0012303FA00F029
:10060000054BC3F80001002070470120704700200F
:1006100070470020704700BF00060E40094BB3FB37
:10062000F1F1814208D8C1EB0133834207D3B0FB1B
:10063000F1F0C0F30B0070474FF6FF7070474FF6B4
:10064000FF7070470020A10710B4054C04EA034373
:10065000C2F30B0213431943416010BC704700BF43
:100660000000FF0F024B984204BF024A1A60704715
:10067000501A0E40010000A5806870474068C0F322
:100680000B00C001B0FBF1F1014800FB01F0704725
:1006900040420F00FEE700BF08B51E4B1E4A9A42BB
:1006A00003D01E4B1B4A9A4204D31D4B1D4A9A424B
:1006B0000FD31AE017491C4B5B1A23F003030433D2
:1006C000154A134452F8040B41F8040B9A42F9D12D
:1006D000EBE7164B164AD21A22F003021A44043BE7
:1006E000002143F8041B9342FBD1124B23F06042DC
:1006F00022F07F0210498A6003F16043B3F5801F46
:1007000003D28B6843F000538B600C4B98470C4B23
:100710009847FEE7000007208C0A080058050720CC
:10072000E805072058050720570507205C05072026
:10073000EB0507200000080000ED00E02509080097
:10074000810808003E4B1B6B03F00303032B5FD8AB
:10075000DFE803F0020E2B2B3A4B5B6913F0800F9E
:1007600014BF4FF400424FF4FA42374B1A604FE087
:10077000334B1B6A13F0807F03D0344A324B1A602C
:1007800046E0334A304B1A602D4B1B6A03F070036E
:10079000102B02D0202B04D03AE02E4A2A4B1A60AC
:1007A00036E02A4A284B1A6032E0254B1B6A13F0C8
:1007B000807F03D0254A244B1A6012E0244A224B42
:1007C0001A601F4B1B6A03F07003102B02D0202B02
:1007D00004D006E01F4A1C4B1A6002E01B4A1A4B69
:1007E0001A60174B1B6B03F00303022B0DD1144A45
:1007F000936A926A1448C3F30A41036801FB033306
:10080000D2B2B3FBF2F3036002E0134A0E4B1A605C
:100810000B4B1B6B03F07003702B07D10A4A136854
:100820000E49A1FB03135B0813607047044B1B6B5D
:100830000549C3F302120B68D3400B60704700BF39
:1008400000060E40101A0E402C010720001BB700B6
:1008500000093D0000127A00001C4E0EABAAAAAAA5
:1008600010B5044C2046044B98472046034B98474C
:1008700010BD00BF501A0E4079060800650608003A
:1008800038B51C4B98471C4B984742F210721B4BD3
:100890001A604FF400411A481A4B98474FF6FF73FD
:1008A000984200D1FEE782B2174C13461749204602
:1008B000174DA8474FF400412046164B9847164B5A
:1008C0001022C3F88020C3F88021002183F804138C
:1008D0001A6001231149124AA4F525644FF0006003
:1008E00000E001338B4208BF6063FAD09342F8DD29
:1008F000FEE700BF51010800B5010800E40507202C
:10090000C0C62D001D060800501A0E4000500030D1
:10091000490608007D06080000E100E0F8E0F50562
:10092000FFE0F50570B50F4E0F4D761BB61018BFE2
:10093000002405D0013455F8043B9847A642F9D16C
:100940000A4E0B4D00F090F8761BB61018BF00242D
:1009500006D0013455F8043B9847A642F9D170BD42
:1009600070BD00BF740A0800740A08007C0A080001
:10097000740A0800024B13B1024800F005B8704732
:100980000000000095090800002301461A46184699
:1009900000F014B838B5074D074C2C1BA41005D037
:1009A000013C55F8043D9847002CF9D1BDE838408A
:1009B00000F064B88C0A0800880A08002DE9F047A6
:1009C000254C064625688846D5F848419246994602
:1009D000C4B360681F2817DC411C76B104EB8003A8
:1009E000C3F888A0D4F88851012282401543022E12
:1009F000C4F88851C3F808911ED0831C61600020A0
:100A000044F82380BDE8F087144B03B34FF4C8705B
:100A1000AFF300800446D0B1D5F84831002784E810
:100A200088003846C5F848410121C4F88871C4F8E7
:100A30008C71002EE1D0D1E7D4F88C311A43C4F880
:100A40008C21DAE705F5A674C5F84841C1E74FF0F7
:100A5000FF30BDE8F08700BF640A08000000000016
:100A60004300000030010720F8B500BFF8BC08BC07
:100A70009E4670477509080019010800F8B500BFC7
:0C0A8000F8BC08BC9E467047F50008005A
:100A8C004FF48063204A136002F5007213601F4B11
:100A9C001B6A13F0807F07D11D4A1C4B1A621A4641
:100AAC00936E13F0010FFBD01A4A184B1A621A46B8
:100ABC00936E13F4803FFBD0144A136B23F00303A3
:100ACC0043F001031363936E13F0080FFBD0124A2B
:100ADC000E4B9A621A46936E13F0020FFBD0112242
:100AEC000A4B1A631A46936E13F0080FFBD01222AE
:100AFC00064B1A631A46936E13F0080FFBD0074A85
:100B0C00074B1A60704700BF000A0E4000060E40EB
:100B1C000908370009083701013F0D2000BD010508
:100B2C002C0107201B4B984206D800231A4A13604D
:100B3C0002F5007213607047184B984207D84FF4B7
:100B4C008073154A136002F5007213607047144BE2
:100B5C00984207D84FF400730F4A136002F50072E5
:100B6C00136070470F4B984207D84FF440730A4AF2
:100B7C00136002F50072136070470B4B984294BFE0
:100B8C004FF480634FF4A063034A136002F50072C4
:100B9C0013607047BFEA2101000A0E407FF0FA0291
:100BAC00FF8FD003FFB3C4047F4A5D0500093D00ED
:100BBC00000000001C04072084040720EC0407201C
:100BCC000000000000000000000000000000000019
:100BDC000000000000000000000000000000000009
:100BEC0000000000600A0800000000000000000087
:100BFC0000000000000000000000000000000000E9
:100C0C0000000000000000000000000000000000D8
:100C1C0000000000000000000000000000000000C8
:100C2C0000000000000000000000000000000000B8
:100C3C0000000000000000000000000000000000A8
:100C4C000000000000000000000000000000000098
:100C5C000000000000000000010000000000000087
:100C6C000E33CDAB34126DE6ECDE05000B0000004C
:100C7C000000000000000000000000000000000068
:100C8C000000000000000000000000000000000058
:100C9C000000000000000000000000000000000048
:100CAC000000000000000000000000000000000038
:0400000380000699DA
:00000001FF
